:020000040800F2
:100000000028002019100008A90F0008AF0F0008F1
:10001000B50F0008BB0F0008C10F0008000000006A
:10002000000000000000000000000000C70F0008F2
:10003000D30F000800000000DF0F0008EB0F0008DE
:1000400061100008611000086110000861100008CC
:1000500061100008611000086110000861100008BC
:1000600061100008611000086110000861100008AC
:10007000611000086110000861100008611000089C
:10008000611000086110000861100008611000088C
:10009000611000086110000861100008611000087C
:1000A000611000086110000861100008611000086C
:1000B000F90F00086110000800000000611000083E
:1000C000611000080000000000000000611000083E
:1000D000000000006110000861100008000000002E
:1000E00061100008611000086110000800000000A5
:1000F0000000000000000000000000000000000000
:0C01000000000000000000005FF808F1A3
:10010C0010B5054C237833B9044B13B10448AFF345
:10011C0000800123237010BD3C0000200000000073
:10012C006426000808B5034B1BB103490348AFF321
:10013C00008008BD0000000040000020642600087C
:10014C0080B400AF1A4B1B681A4A82FB0312921040
:10015C00DB17D31A184A1360154B1968154B83FB20
:10016C0001239A10CB17D21A13469B0013445B0041
:10017C00CA1A114B5A60114B1B680E4A82FB0312B0
:10018C009210DB17D31A0C4A93600C4B1968094B6D
:10019C0083FB01239A10CB17D21A13469B001344EE
:1001AC005B00CA1A044BDA6000BFBD4680BC7047C6
:1001BC008C00002067666666000000208800002026
:1001CC0080B400AF134B1B680133124A1360114B00
:1001DC001B683B2B07DD0F4B00221A600E4B1B6874
:1001EC0001330D4A13600C4B1B683B2B07DD0A4B8C
:1001FC0000221A60094B1B680133084A1360074B35
:10020C001B68172B02DD054B00221A6000BFBD4690
:10021C0080BC704784000020880000208C000020E7
:10022C0080B582B000AF78607B68092B00F28081CA
:10023C0001A252F823F000BF6D020008B5020008BD
:10024C00FD020008450300088D030008D5030008D3
:10025C001D04000865040008AD040008F50400083E
:10026C0000220121B84801F0E1F900220221B64830
:10027C0001F0DCF900220421B34801F0D7F9002287
:10028C000821B14801F0D2F900221021AE4801F04A
:10029C00CDF900222021AC4801F0C8F901224021FF
:1002AC00A94801F0C3F94AE101220121A64801F055
:1002BC00BDF900220221A44801F0B8F90022042162
:1002CC00A14801F0B3F9012208219F4801F0AEF9D1
:1002DC00012210219C4801F0A9F9012220219A4801
:1002EC0001F0A4F901224021974801F09FF926E181
:1002FC0000220121944801F099F900220221924830
:10030C0001F094F9012204218F4801F08FF90022A9
:10031C0008218D4801F08AF9002210218A4801F049
:10032C0085F901222021884801F080F90022402122
:10033C00854801F07BF902E100220121824801F09D
:10034C0075F900220221804801F070F90022042185
:10035C007D4801F06BF9002208217B4801F066F919
:10036C0001221021784801F061F901222021764800
:10037C0001F05CF900224021734801F057F9DEE0EE
:10038C0001220121704801F051F9002202216E482E
:10039C0001F04CF9002204216B4801F047F90122CD
:1003AC000821694801F042F901221021664801F048
:1003BC003DF900222021644801F038F90022402147
:1003CC00614801F033F9BAE0002201215E4801F0E6
:1003DC002DF9012202215C4801F028F900220421A8
:1003EC00594801F023F900220821574801F01EF961
:1003FC0001221021544801F019F900222021524801
:10040C0001F014F9002240214F4801F00FF996E059
:10041C00002201214C4801F009F9012202214A482D
:10042C0001F004F900220421474801F0FFF80022F2
:10043C000821454801F0FAF800221021424801F049
:10044C00F5F800222021404801F0F0F8002240216C
:10045C003D4801F0EBF872E0002201213A4801F02E
:10046C00E5F800220221384801F0E0F800220421CE
:10047C00354801F0DBF801220821334801F0D6F8A9
:10048C0001221021304801F0D1F8012220212E4800
:10049C0001F0CCF8012240212B4801F0C7F84EE0C6
:1004AC0000220121284801F0C1F80022022126482F
:1004BC0001F0BCF800220421234801F0B7F8002217
:1004CC000821214801F0B2F8002210211E4801F049
:1004DC00ADF8002220211C4801F0A8F80022402190
:1004EC00194801F0A3F82AE000220121164801F076
:1004FC009DF800220221144801F098F800220421F2
:10050C00114801F093F8002208210F4801F08EF8F1
:10051C00012210210C4801F089F8002220210A4800
:10052C0001F084F800224021074801F07FF806E032
:10053C0001224FF6FF71044801F078F800BF00BFAC
:10054C000837BD4680BD00BF000C014080B582B0AD
:10055C0000AF78607B68032B7AD801A252F823F0A5
:10056C007D050008B5050008ED0500082506000806
:10057C0000224021394801F059F8012280213748E6
:10058C0001F054F801224FF48071344801F04EF818
:10059C0001224FF40071314801F048F8304B1B68D0
:1005AC001846FFF73DFE54E0012240212B4801F094
:1005BC003DF800228021294801F038F801224FF43F
:1005CC008071264801F032F801224FF40071234863
:1005DC0001F02CF8224B5B681846FFF721FE38E03F
:1005EC00012240211D4801F021F8012280211B48E5
:1005FC0001F01CF800224FF48071184801F016F835
:10060C0001224FF40071154801F010F8144B9B684F
:10061C001846FFF705FE1CE0012240210F4801F0AF
:10062C0005F8012280210D4801F000F801224FF459
:10063C0080710A4800F0FAFF00224FF4007107485D
:10064C0000F0F4FF064BDB681846FFF7E9FD00E00D
:10065C0000BF00BF0837BD4680BD00BF0008014089
:10066C000000002080B500AF00F0F6FC00F098F818
:10067C0000F01EF900F0D0F83C4801F035FC4FF4C6
:10068C007A7000F049FB4FF47A7000F079FB4FF46C
:10069C00FA7000F05BFB4FF47A7000F08BFB4FF4B8
:1006AC007A7000F0A1FB324B0D221A60314B3B22C9
:1006BC001A60314B32221A60304B01221A60304BD7
:1006CC001B68012B0BD14FF47A7000F025FB202115
:1006DC002C4800F0C3FF10212A4800F0BFFF274B25
:1006EC001B68012B07D14FF47A7000F049FBFFF720
:1006FC0067FDFFF725FD244B1B68012B14D14FF42C
:10070C00FA7000F023FB214B1B685A1C1F490A602E
:10071C001846FFF71BFF1D4B1A681D4B1B689A42AE
:10072C0002DB1A4B00221A601A4B1B68012B12D1E8
:10073C004FF47A7000F03EFB174B1B685A1C16499D
:10074C000A60184600F016FA134B1B68072B02DDE3
:10075C00114B00221A60114B1B68012BAFD14FF4C7
:10076C007A7000F041FB00F05FFAA8E790000020DF
:10077C008C00002088000020840000202000002035
:10078C0064000020000801406C000020580000208C
:10079C007C260008780000205C00002080000020EF
:1007AC0080B590B000AF07F118032822002118463D
:1007BC0001F04AFF3B1D00221A605A609A60DA6011
:1007CC001A610223BB610123BB621023FB6200236D
:1007DC007B6307F11803184600F05AFF0346002B01
:1007EC0001D000F0C5F80F237B600023BB60002311
:1007FC00FB6000233B6100237B613B1D00211846FD
:10080C0001F0C6F90346002B01D000F0B1F800BF8F
:10081C004037BD4680BD000080B586B000AF07F103
:10082C00080300221A605A609A60DA603B46002284
:10083C001A605A601D4B4FF080421A601B4B41F6F8
:10084C003F725A60194B00229A60184B0922DA60E9
:10085C00164B00221A61154B00229A61134801F0C5
:10086C00F3FA0346002B01D000F082F84FF48053CA
:10087C00BB6007F1080319460C4801F071FC0346F4
:10088C00002B01D000F074F800233B6000237B6048
:10089C003B461946054801F049FE0346002B01D0A2
:1008AC0000F066F800BF1837BD4680BD90000020F0
:1008BC0080B586B000AF07F1080300221A605A60B9
:1008CC009A60DA60224B9B69214A43F004039361DE
:1008DC001F4B9B6903F004037B607B681C4B9B697B
:1008EC001B4A43F008039361194B9B6903F00803FF
:1008FC003B603B6800224FF6FC71164800F096FEF8
:10090C0000224FF67F71144800F090FE4FF6FC73F6
:10091C00BB600123FB6000233B6102237B6107F179
:10092C00080319460B4800F007FD4FF67F73BB60B8
:10093C000123FB6000233B6102237B6107F1080369
:10094C001946054800F0F8FC00BF1837BD4680BDBD
:10095C000010024000080140000C014080B582B03C
:10096C0000AF786000F05AFA00BF0837BD4680BD72
:10097C0080B400AF72B600BFFEE7000080B582B055
:10098C0000AF7860396001224FF48071774800F035
:10099C004DFE01224FF40071744800F047FE012215
:1009AC004FF48061714800F041FE01224FF4006168
:1009BC006E4800F03BFE01224FF480516B4800F072
:1009CC0035FE01224FF40051684800F02FFE012241
:1009DC004FF48041654800F029FE01224FF400419C
:1009EC00624800F023FE7B68072B4BD801A252F81B
:1009FC0023F000BF210A00082F0A00083D0A000856
:100A0C004B0A0008590A0008670A0008750A000812
:100A1C00830A000800224FF48071544800F006FE4F
:100A2C0031E000224FF40071504800F0FFFD2AE045
:100A3C0000224FF480614D4800F0F8FD23E00022C5
:100A4C004FF40061494800F0F1FD1CE000224FF426
:100A5C008051464800F0EAFD15E000224FF40051A9
:100A6C00424800F0E3FD0EE000224FF480413F4885
:100A7C0000F0DCFD07E000224FF400413B4800F0A1
:100A8C00D5FD00E000BF3B6803F08003002B0CBFDA
:100A9C0001230023DBB21A464FF40041344800F026
:100AAC00C5FD3B6803F04003002B0CBF0123002362
:100ABC00DBB21A464FF480412D4800F0B7FD3B687D
:100ACC0003F02003002B0CBF01230023DBB21A46DA
:100ADC004FF40051264800F0A9FD3B6803F01003C9
:100AEC00002B0CBF01230023DBB21A464FF48051BC
:100AFC001F4800F09BFD3B6803F00803002B0CBF64
:100B0C0001230023DBB21A464FF40061184800F0B1
:100B1C008DFD3B6803F00403002B0CBF0123002365
:100B2C00DBB21A464FF48061114800F07FFD3B6840
:100B3C0003F00203002B0CBF01230023DBB21A4687
:100B4C0008210B4800F072FD3B6803F00103002BF9
:100B5C000CBF01230023DBB21A460421044800F029
:100B6C0065FD00BF0837BD4680BD00BF000C0140CD
:100B7C000008014080B582B000AF78607B68072B1D
:100B8C004AD801A252F823F0B50B0008C30B000899
:100B9C00D10B0008DF0B0008ED0B0008FB0B000865
:100BAC00090C0008170C00081E4B1B781946002076
:100BBC00FFF7E4FE31E01B4B5B7819460120FFF791
:100BCC00DDFE2AE0174B9B7819460220FFF7D6FE74
:100BDC0023E0144BDB7819460320FFF7CFFE1CE013
:100BEC00104B1B7919460420FFF7C8FE15E00D4B7E
:100BFC005B7919460520FFF7C1FE0EE0094B9B7986
:100C0C0019460620FFF7BAFE07E0064BDB791946BA
:100C1C000720FFF7B3FE00E000BF00BF0837BD465A
:100C2C0080BD00BF1000002080B400AF394B1B7892
:100C3C005B08DBB25AB2374B1B78DB015BB2134358
:100C4C005BB2DAB2334B1A70324B5B785B08DBB2B7
:100C5C005AB2304B5B78DB015BB213435BB2DAB256
:100C6C002C4B5A702B4B9B785B08DBB25AB2294B3E
:100C7C009B78DB015BB213435BB2DAB2254B9A7003
:100C8C00244BDB785B08DBB25AB2224BDB78DB01FE
:100C9C005BB213435BB2DAB21E4BDA701D4B1B799D
:100CAC005B08DBB25AB21B4B1B79DB015BB2134303
:100CBC005BB2DAB2174B1A71164B5B795B08DBB27D
:100CCC005AB2144B5B79DB015BB213435BB2DAB201
:100CDC00104B5A710F4B9B795B08DBB25AB20D4B20
:100CEC009B79DB015BB213435BB2DAB2094B9A71AD
:100CFC00084BDB795B08DBB25AB2064BDB79DB01C4
:100D0C005BB213435BB2DAB2024BDA7100BFBD4681
:100D1C0080BC70471000002080B483B000AF7860B6
:100D2C00074B1B687A6892FBF3F3064A1360064B79
:100D3C0000221A6000BF0C37BD4680BC704700BF54
:100D4C0018000020600000206400002080B483B0F4
:100D5C0000AF7860074B1B687A6892FBF3F3064A86
:100D6C001360064B00221A6000BF0C37BD4680BCD6
:100D7C00704700BF1C000020680000206C000020A1
:100D8C0080B483B000AF7860074B1B687A6892FB25
:100D9C00F3F3064A1360064B00221A6000BF0C37AF
:100DAC00BD4680BC704700BF2400002070000020AE
:100DBC002000002080B483B000AF7860074B1B6824
:100DCC007A6892FBF3F3064A1360064B00221A6012
:100DDC0000BF0C37BD4680BC704700BF2800002008
:100DEC00740000207800002080B483B000AF7860DD
:100DFC00074B1B687A6892FBF3F3064A1360064BA9
:100E0C0000221A6000BF0C37BD4680BC704700BF83
:100E1C002C0000207C0000208000002080B400AF5B
:100E2C00294B1B68002B0BDD274B1B68013B264A0B
:100E3C001360254B1B68002B02DC244B01221A602B
:100E4C00234B1B68002B0BDD214B1B68013B204AFD
:100E5C0013601F4B1B68002B02DC1E4B01221A6017
:100E6C001D4B1B68002B0BDD1B4B1B68013B1A4AEF
:100E7C001360194B1B68002B02DC184B01221A6003
:100E8C00174B1B68002B0BDD154B1B68013B144AE1
:100E9C001360134B1B68002B02DC124B01221A60EF
:100EAC00114B1B68002B0BDD0F4B1B68013B0E4AD3
:100EBC0013600D4B1B68002B02DC0C4B01221A60DB
:100ECC0000BFBD4680BC704760000020640000205D
:100EDC00680000206C000020700000202000002022
:100EEC0074000020780000207C000020800000208E
:100EFC0080B485B000AF154B9B69144A43F00103D5
:100F0C009361124B9B6903F00103BB60BB680F4BF1
:100F1C00DB690E4A43F08053D3610C4BDB6903F061
:100F2C0080537B607B680A4B5B68FB60FB6823F03B
:100F3C00E063FB60FB6843F08063FB60044AFB6882
:100F4C00536000BF1437BD4680BC70470010024090
:100F5C000000014080B584B000AF78607B681B68EE
:100F6C00B3F1804F13D10C4BDB690B4A43F00103F7
:100F7C00D361094BDB6903F00103FB60FB680022C2
:100F8C0000211C2000F0A1F91C2000F0BAF900BFD0
:100F9C001037BD4680BD00BF0010024080B400AFCA
:100FAC00FEE780B400AFFEE780B400AFFEE780B48C
:100FBC0000AFFEE780B400AFFEE780B400AF00BF27
:100FCC00BD4680BC704780B400AF00BFBD4680BC3E
:100FDC00704780B400AF00BFBD4680BC704780B581
:100FEC0000AF00F07FF800BF80BD000080B500AFFF
:100FFC00024800F0C5FF00BF80BD00BF900000207C
:10100C0080B400AF00BFBD4680BC7047FFF7F8FF4F
:10101C000B480C490C4A002302E0D458C45004334A
:10102C00C4188C42F9D3094A094C002301E013601F
:10103C000432A242FBD301F0E3FAFFF713FB704733
:10104C00000000203C000020AC2600083C000020E2
:10105C00DC000020FEE7000080B500AF084B1B68E9
:10106C00074A43F010031360032000F023F90F200C
:10107C0000F008F8FFF73CFF0023184680BD00BFC6
:10108C000020024080B582B000AF7860124B1A6825
:10109C00124B1B7819464FF47A73B3FBF1F3B2FB86
:1010AC00F3F3184600F03BF90346002B01D0012363
:1010BC000EE07B680F2B0AD8002279684FF0FF30C6
:1010CC0000F003F9064A7B681360002300E001235B
:1010DC0018460837BD4680BD30000020380000207F
:1010EC003400002080B400AF054B1B781A46054B2A
:1010FC001B681344034A136000BFBD4680BC704795
:10110C0038000020D800002080B400AF024B1B68D0
:10111C001846BD4680BC7047D800002080B485B00E
:10112C0000AF78607B6803F00703FB600C4BDB6857
:10113C00BB60BA684FF6FF031340BB60FB681A0232
:10114C00BB68134343F0BF6343F40033BB60044AF2
:10115C00BB68D36000BF1437BD4680BC704700BF6E
:10116C0000ED00E080B400AF044BDB681B0A03F019
:10117C0007031846BD4680BC704700BF00ED00E079
:10118C0080B483B000AF0346FB7197F90730002B96
:10119C000BDBFB7903F01F02064997F907305B095B
:1011AC00012000FA02F241F8232000BF0C37BD46A3
:1011BC0080BC704700E100E080B483B000AF034610
:1011CC003960FB7197F90730002B0ADB3B68DAB208
:1011DC000C4997F907301201D2B20B4483F8002363
:1011EC000AE03B68DAB20849FB7903F00F03043BD1
:1011FC001201D2B20B441A7600BF0C37BD4680BC2C
:10120C00704700BF00E100E000ED00E080B489B061
:10121C0000AFF860B9607A60FB6803F00703FB610C
:10122C00FB69C3F10703042B28BF0423BB61FB69D3
:10123C000433062B02D9FB69033B00E000237B61DE
:10124C004FF0FF32BB6902FA03F3DA43BB681A4072
:10125C007B699A404FF0FF317B6901FA03F3D94364
:10126C007B680B40134318462437BD4680BC70473F
:10127C0080B582B000AF78607B68013BB3F1807FB2
:10128C0001D301230FE00A4A7B68013B53600F2115
:10129C004FF0FF30FFF790FF054B00229A60044B94
:1012AC0007221A60002318460837BD4680BD00BFD0
:1012BC0010E000E080B582B000AF78607868FFF78E
:1012CC002DFF00BF0837BD4680BD80B586B000AF8E
:1012DC000346B9607A60FB7300237B61FFF742FF22
:1012EC0078617A68B9687869FFF790FF024697F9D8
:1012FC000F3011461846FFF75FFF00BF1837BD4689
:10130C0080BD80B582B000AF0346FB7197F9073002
:10131C001846FFF735FF00BF0837BD4680BD80B5C6
:10132C0082B000AF78607868FFF7A2FF03461846DA
:10133C000837BD4680BD000080B48BB000AF78602C
:10134C00396000237B6200233B6248E101227B6A07
:10135C0002FA03F3FB613B681B68FA691340BB613B
:10136C00BA69FB699A4240F037813B685B68A34AD3
:10137C0093425ED0A14A934275D8A14A934258D069
:10138C009F4A93426FD89F4A934252D09D4A9342B0
:10139C0069D89D4A93424CD09B4A934263D89B4A4E
:1013AC00934246D0994A93425DD8122B2AD8122BDD
:1013BC0059D801A252F823F03F1400081914000860
:1013CC002B1400086D140008731400087314000823
:1013DC0073140008731400087314000873140008C5
:1013EC0073140008731400087314000873140008B5
:1013FC0073140008731400087314000821140008F7
:10140C0035140008824A934213D02CE03B68DB6809
:10141C003B6229E03B68DB6804333B6224E03B68B9
:10142C00DB6808333B621FE03B68DB680C333B62D4
:10143C001AE03B689B68002B02D104233B6213E04B
:10144C003B689B68012B05D108233B627B68FA69DA
:10145C001A6109E008233B627B68FA695A6103E070
:10146C0000233B6200E000BFBB69FF2B01D87B6807
:10147C0001E07B6804337B61BB69FF2B02D87B6A7C
:10148C009B0002E07B6A083B9B003B617B691A680E
:10149C000F213B6901FA03F3DB431A40396A3B69BC
:1014AC0001FA03F31A437B691A603B685B6803F02B
:1014BC008053002B00F09080564B9B69554A43F0AB
:1014CC0001039361534B9B6903F00103BB60BB6841
:1014DC00514A7B6A9B08023352F82330FB607B6ACB
:1014EC0003F003039B000F2202FA03F3DB43FA68B9
:1014FC001340FB607B68494A93420DD07B68484A95
:10150C00934207D07B68474A934201D1022304E0FF
:10151C00032302E0012300E000237A6A02F00302B5
:10152C0092009340FA681343FB603B497B6A9B082B
:10153C000233FA6841F823203B685B6803F480139C
:10154C00002B06D0384B9A683749BB6913438B6024
:10155C0006E0354B9A68BB69DB43334913408B601B
:10156C003B685B6803F40013002B06D02E4BDA6843
:10157C002D49BB691343CB6006E02B4BDA68BB6982
:10158C00DB4329491340CB603B685B6803F40033B1
:10159C00002B06D0244B5A682349BB6913434B607C
:1015AC0006E0214B5A68BB69DB431F4913404B6073
:1015BC003B685B6803F48033002B06D01A4B1A6827
:1015CC001949BB6913430B6006E0174B1A68BB69DA
:1015DC00DB43154913400B607B6A01337B623B682C
:1015EC001A687B6A22FA03F3002B7FF4AFAE00BFBC
:1015FC0000BF2C37BD4680BC704700BF00003210C6
:10160C000000311000002210000021100000121008
:10161C0000001110001002400000014000080140C1
:10162C00000C0140001001400004014080B483B064
:10163C0000AF78600B467B8013467B707B78002B69
:10164C0003D07A887B681A6103E07B881A047B6874
:10165C001A6100BF0C37BD4680BC704780B485B0A2
:10166C0000AF78600B467B807B68DB68FB607A8818
:10167C00FB6813401A04FB68D9437B880B401A4360
:10168C007B681A6100BF1437BD4680BC70470000F0
:10169C0080B586B000AF78607B68002B01D1012348
:1016AC006CE27B681B6803F00103002B00F0878061
:1016BC00924B5B6803F00C03042B0CD08F4B5B68D4
:1016CC0003F00C03082B12D18C4B5B6803F48033B2
:1016DC00B3F5803F0BD1894B1B6803F40033002B0F
:1016EC006CD07B685B68002B68D1012346E27B6879
:1016FC005B68B3F5803F06D1804B1B687F4A43F48F
:10170C00803313602EE07B685B68002B0CD17B4B25
:10171C001B687A4A23F480331360784B1B68774A32
:10172C0023F4802313601DE07B685B68B3F5A02F66
:10173C000CD1724B1B68714A43F4802313606F4BBE
:10174C001B686E4A43F4803313600BE06B4B1B68D1
:10175C006A4A23F480331360684B1B68674A23F48E
:10176C00802313607B685B68002B13D0FFF7CCFCE5
:10177C00386108E0FFF7C8FC02463B69D31A642BBA
:10178C0001D90323FAE15D4B1B6803F40033002BF2
:10179C00F0D014E0FFF7B8FC386108E0FFF7B4FCB8
:1017AC0002463B69D31A642B01D90323E6E1534B60
:1017BC001B6803F40033002BF0D100E000BF7B6802
:1017CC001B6803F00203002B63D04C4B5B6803F0E7
:1017DC000C03002B0BD0494B5B6803F00C03082B5C
:1017EC001CD1464B5B6803F48033002B16D1434B62
:1017FC001B6803F00203002B05D07B681B69012BCF
:10180C0001D00123BAE13D4B1B6823F0F8027B6841
:10181C005B69DB00394913430B603AE07B681B6959
:10182C00002B20D0364B01221A60FFF76DFC38617B
:10183C0008E0FFF769FC02463B69D31A022B01D979
:10184C0003239BE12D4B1B6803F00203002BF0D00C
:10185C002A4B1B6823F0F8027B685B69DB00274985
:10186C0013430B6015E0264B00221A60FFF74CFC6B
:10187C00386108E0FFF748FC02463B69D31A022B9B
:10188C0001D903237AE11D4B1B6803F00203002BE3
:10189C00F0D17B681B6803F00803002B3AD07B68FF
:1018AC009B69002B19D0174B01221A60FFF72CFCF7
:1018BC00386108E0FFF728FC02463B69D31A022B7B
:1018CC0001D903235AE10D4B5B6A03F00203002B91
:1018DC00F0D0012000F09AFA1CE00A4B00221A60AA
:1018EC00FFF712FC38610FE0FFF70EFC02463B6974
:1018FC00D31A022B08D9032340E100BF0010024089
:10190C0000004242800442429E4B5B6A03F0020399
:10191C00002BE9D17B681B6803F00403002B00F05B
:10192C00A6800023FB75974BDB6903F08053002BDB
:10193C000DD1944BDB69934A43F08053D361914BA7
:10194C00DB6903F08053BB60BB680123FB758E4BD6
:10195C001B6803F48073002B18D18B4B1B688A4ACD
:10196C0043F480731360FFF7CFFB386108E0FFF797
:10197C00CBFB02463B69D31A642B01D90323FDE050
:10198C00814B1B6803F48073002BF0D07B68DB6801
:10199C00012B06D17B4B1B6A7A4A43F0010313627D
:1019AC002DE07B68DB68002B0CD1764B1B6A754AEB
:1019BC0023F001031362734B1B6A724A23F0040376
:1019CC0013621CE07B68DB68052B0CD16D4B1B6A2A
:1019DC006C4A43F0040313626A4B1B6A694A43F076
:1019EC00010313620BE0674B1B6A664A23F0010389
:1019FC001362644B1B6A634A23F0040313627B6813
:101A0C00DB68002B15D0FFF77FFB38610AE0FFF78E
:101A1C007BFB02463B69D31A41F28832934201D9CF
:101A2C000323ABE0574B1B6A03F00203002BEED0F1
:101A3C0014E0FFF769FB38610AE0FFF765FB02462B
:101A4C003B69D31A41F28832934201D9032395E0C2
:101A5C004C4B1B6A03F00203002BEED1FB7D012BD8
:101A6C0005D1484BDB69474A23F08053D3617B682F
:101A7C00DB69002B00F08180424B5B6803F00C03A8
:101A8C00082B61D07B68DB69022B46D13F4B0022CF
:101A9C001A60FFF739FB386108E0FFF735FB0246A7
:101AAC003B69D31A022B01D9032367E0354B1B6822
:101ABC0003F00073002BF0D17B681B6AB3F5803FF9
:101ACC0008D1304B5B6823F400327B689B682D494E
:101ADC0013434B602B4B5B6823F474127B68196ABD
:101AEC007B685B6A0B43274913434B60274B0122EE
:101AFC001A60FFF709FB386108E0FFF705FB0246A7
:101B0C003B69D31A022B01D9032337E01D4B1B6809
:101B1C0003F00073002BF0D02FE01C4B00221A6056
:101B2C00FFF7F2FA386108E0FFF7EEFA02463B697C
:101B3C00D31A022B01D9032320E0124B1B6803F0AC
:101B4C000073002BF0D118E07B68DB69012B01D10D
:101B5C00012313E00B4B5B68FB60FB6803F48032E2
:101B6C007B681B6A9A4206D1FB6803F470127B688F
:101B7C005B6A9A4201D0012300E000231846183713
:101B8C00BD4680BD00100240007000406000424223
:101B9C0080B584B000AF786039607B68002B01D1D0
:101BAC000123D0E06A4B1B6803F007033A689A42A2
:101BBC0010D9674B1B6823F0070265493B68134338
:101BCC000B60634B1B6803F007033A689A4201D021
:101BDC000123B8E07B681B6803F00203002B20D0C4
:101BEC007B681B6803F00403002B05D0594B5B6822
:101BFC00584A43F4E06353607B681B6803F00803A6
:101C0C00002B05D0534B5B68524A43F4605353602E
:101C1C00504B5B6823F0F0027B689B684D49134383
:101C2C004B607B681B6803F00103002B40D07B6882
:101C3C005B68012B07D1474B1B6803F40033002B67
:101C4C0015D101237FE07B685B68022B07D1414BE8
:101C5C001B6803F00073002B09D1012373E03D4B8B
:101C6C001B6803F00203002B01D101236BE0394BFD
:101C7C005B6823F003027B685B68364913434B6057
:101C8C00FFF742FAF8600AE0FFF73EFA0246FB68FB
:101C9C00D31A41F28832934201D9032353E02D4BDE
:101CAC005B6803F00C027B685B689B009A42EBD18B
:101CBC00274B1B6803F007033A689A4210D2244B57
:101CCC001B6823F0070222493B6813430B60204B2F
:101CDC001B6803F007033A689A4201D0012332E0F3
:101CEC007B681B6803F00403002B08D0194B5B685E
:101CFC0023F4E0627B68DB68164913434B607B6816
:101D0C001B6803F00803002B09D0124B5B6823F40B
:101D1C0060527B681B69DB000E4913434B6000F07B
:101D2C0021F802460B4B5B681B0903F00F030A49B1
:101D3C00CB5C22FA03F3094A1360094B1B68184663
:101D4C00FFF7A0F9002318461037BD4680BD00BF31
:101D5C0000200240001002408026000830000020C5
:101D6C003400002080B487B000AF0023FB60002358
:101D7C00BB6000237B6100237B6000233B611E4B17
:101D8C005B68FB60FB6803F00C03042B02D0082B90
:101D9C0003D027E0194B3B6127E0FB689B0C03F059
:101DAC000F03174AD35C7B60FB6803F48033002B72
:101DBC0010D0114B5B685B0C03F00103114AD35C30
:101DCC00BB607B680D4A02FB03F2BB68B2FBF3F30A
:101DDC007B6104E07B680C4A02FB03F37B617B694B
:101DEC003B6102E0054B3B6100BF3B6918461C3769
:101DFC00BD4680BC704700BF0010024000127A0044
:101E0C0090260008A026000800093D0080B485B08B
:101E1C0000AF78600A4B1B680A4AA2FB03235B0ADB
:101E2C007A6802FB03F3FB6000BFFB685A1EFA6082
:101E3C00002BF9D100BF00BF1437BD4680BC7047E2
:101E4C0030000020D34D621080B582B000AF7860B6
:101E5C007B68002B01D1012341E07B6893F83D3076
:101E6C00DBB2002B06D17B68002283F83C2078681B
:101E7C00FFF770F87B68022283F83D207B681A68B4
:101E8C007B6804331946104600F056FA7B68012231
:101E9C0083F846207B68012283F83E207B68012270
:101EAC0083F83F207B68012283F840207B68012265
:101EBC0083F841207B68012283F842207B68012251
:101ECC0083F843207B68012283F844207B6801223D
:101EDC0083F845207B68012283F83D2000231846B7
:101EEC000837BD4680BD000080B485B000AF786077
:101EFC007B6893F83D30DBB2012B01D0012335E038
:101F0C007B68022283F83D207B681B68DA687B685B
:101F1C001B6842F00102DA607B681B68164A934228
:101F2C0009D07B681B68B3F1804F04D07B681B68B9
:101F3C00124A934211D17B681B689B6803F007031C
:101F4C00FB60FB68062B10D07B681B681A687B68EB
:101F5C001B6842F001021A6007E07B681B681A6874
:101F6C007B681B6842F001021A6000231846143784
:101F7C00BD4680BC704700BF002C014000040040EF
:101F8C0080B584B000AF78607B681B68DB68FB6051
:101F9C007B681B681B69BB60BB6803F00203002BEA
:101FAC0020D0FB6803F00203002B1BD07B681B685E
:101FBC006FF002021A617B6801221A777B681B683A
:101FCC009B6903F00303002B03D0786800F098F9A9
:101FDC0005E0786800F08BF9786800F09AF97B6876
:101FEC0000221A77BB6803F00403002B20D0FB6897
:101FFC0003F00403002B1BD07B681B686FF00402FA
:10200C001A617B6802221A777B681B689B6903F450
:10201C004073002B03D0786800F072F905E0786803
:10202C0000F065F9786800F074F97B6800221A7783
:10203C00BB6803F00803002B20D0FB6803F00803F7
:10204C00002B1BD07B681B686FF008021A617B6841
:10205C0004221A777B681B68DB6903F00303002BEF
:10206C0003D0786800F04CF905E0786800F03FF98F
:10207C00786800F04EF97B6800221A77BB6803F091
:10208C001003002B20D0FB6803F01003002B1BD097
:10209C007B681B686FF010021A617B6808221A7744
:1020AC007B681B68DB6903F44073002B03D07868F2
:1020BC0000F026F905E0786800F019F9786800F06E
:1020CC0028F97B6800221A77BB6803F00103002B08
:1020DC000CD0FB6803F00103002B07D07B681B6856
:1020EC006FF001021A617868FEF738FCBB6803F0E8
:1020FC008003002B0CD0FB6803F08003002B07D06F
:10210C007B681B686FF080021A61786800F06FFAC8
:10211C00BB6803F04003002B0CD0FB6803F04003BA
:10212C00002B07D07B681B686FF040021A6178683F
:10213C0000F0F8F8BB6803F02003002B0CD0FB6810
:10214C0003F02003002B07D07B681B686FF0200284
:10215C001A61786800F042FA00BF1037BD4680BDA6
:10216C0080B584B000AF786039600023FB737B6866
:10217C0093F83C30012B01D10223B4E07B6801229F
:10218C0083F83C207B68022283F83D207B681B6827
:10219C009B68BB60BB6823F07703BB60BB6823F410
:1021AC007F43BB607B681B68BA689A603B681B689E
:1021BC00B3F5005F3ED0B3F5005F00F28780B3F556
:1021CC00805F00F08680B3F5805F7FD8702B1AD0CB
:1021DC00702B7BD8602B50D0602B77D8502B3CD0F9
:1021EC00502B73D8402B58D0402B6FD8302B64D049
:1021FC00302B6BD8202B60D0202B67D8002B5CD0D9
:10220C00102B5AD062E07B6818683B6899683B6871
:10221C005A683B68DB6800F06AF97B681B689B684E
:10222C00BB60BB6843F07703BB607B681B68BA6814
:10223C009A604FE07B6818683B6899683B685A68FD
:10224C003B68DB6800F053F97B681B689A687B6815
:10225C001B6842F480429A603CE07B6818683B68DB
:10226C0059683B68DB681A4600F0CAF87B681B6843
:10227C005021184600F021F92CE07B6818683B6867
:10228C0059683B68DB681A4600F0E8F87B681B6805
:10229C006021184600F011F91CE07B6818683B6857
:1022AC0059683B68DB681A4600F0AAF87B681B6823
:1022BC004021184600F001F90CE07B681A683B6875
:1022CC001B681946104600F0F8F803E00123FB7375
:1022DC0000E000BF7B68012283F83D207B68002270
:1022EC0083F83C20FB7B18461037BD4680BD80B47C
:1022FC0083B000AF786000BF0C37BD4680BC704720
:10230C0080B483B000AF786000BF0C37BD4680BC92
:10231C00704780B483B000AF786000BF0C37BD4607
:10232C0080BC704780B483B000AF786000BF0C37BE
:10233C00BD4680BC7047000080B485B000AF7860AB
:10234C0039607B681B68FB607B682B4A934207D023
:10235C007B68B3F1804F03D07B68284A934208D145
:10236C00FB6823F07003FB603B685B68FA681343FF
:10237C00FB607B68204A934207D07B68B3F1804FA7
:10238C0003D07B681D4A934208D1FB6823F4407349
:10239C00FB603B68DB68FA681343FB60FB6823F067
:1023AC0080023B685B691343FB607B68FA681A60C8
:1023BC003B689A687B68DA623B681A687B689A6249
:1023CC007B680D4A934203D13B681A697B681A6398
:1023DC007B6801225A617B681B6903F00103002BA7
:1023EC0005D07B681B6923F001027B681A6100BF72
:1023FC001437BD4680BC7047002C014000040040DF
:10240C0080B487B000AFF860B9607A60FB681B6A73
:10241C007B61FB681B6A23F00102FB681A62FB6894
:10242C009B693B613B6923F0F0033B617B681B01BB
:10243C003A6913433B617B6923F00A037B617A6938
:10244C00BB6813437B61FB683A699A61FB687A69E4
:10245C001A6200BF1C37BD4680BC704780B487B081
:10246C0000AFF860B9607A60FB681B6A7B61FB683F
:10247C001B6A23F01002FB681A62FB689B693B61C4
:10248C003B6923F470433B617B681B033A6913433C
:10249C003B617B6923F0A0037B61BB681B017A69FC
:1024AC0013437B61FB683A699A61FB687A691A622B
:1024BC0000BF1C37BD4680BC704780B485B000AFF0
:1024CC00786039607B689B68FB60FB6823F0700365
:1024DC00FB603A68FB68134343F00703FB607B68BF
:1024EC00FA689A6000BF1437BD4680BC704780B450
:1024FC0087B000AFF860B9607A603B60FB689B689E
:10250C007B617B6923F47F437B613B681A027B68A8
:10251C001A43BB6813437A6913437B61FB687A697E
:10252C009A6000BF1C37BD4680BC704780B485B034
:10253C0000AF786039607B6893F83C30012B01D197
:10254C00022341E07B68012283F83C207B68022255
:10255C0083F83D207B681B685B68FB607B681B68AD
:10256C009B68BB60FB6823F07003FB603B681B68D7
:10257C00FA681343FB607B681B68FA685A607B68D7
:10258C001B68144A934209D07B681B68B3F1804FD7
:10259C0004D07B681B68104A93420CD1BB6823F0B3
:1025AC008003BB603B685B68BA681343BB607B68A5
:1025BC001B68BA689A607B68012283F83D207B68AF
:1025CC00002283F83C20002318461437BD4680BCFB
:1025DC00704700BF002C01400004004080B483B061
:1025EC0000AF786000BF0C37BD4680BC704780B42C
:1025FC0083B000AF786000BF0C37BD4680BC70471D
:10260C0070B500260C4D0D4C641BA410A64209D1CC
:10261C0000F022F800260A4D0A4C641BA410A642B6
:10262C0005D170BD55F8043B98470136EEE755F8D7
:10263C00043B98470136F2E7A4260008A4260008BC
:10264C00A4260008A826000803460244934200D1A1
:10265C00704703F8011BF9E7F8B500BFF8BC08BCDC
:10266C009E467047F8B500BFF8BC08BC9E46704744
:10267C000400000000000000000000000102030440
:10268C000607080902030405060708090A0B0C0DC6
:08269C000E0F101001020000F6
:0426A40031010008F8
:0426A8000D01000818
:1026AC000300000006000000080000000900000004
:1026BC00183C66667E7E66660A0000001400000008
:1026CC00010000000A000000640000000A00000085
:0C26DC0000127A00100000000100000055
:0400000508001019C6
:00000001FF
